{
  "abi": [
    {
      "constant": true,
      "inputs": [],
      "name": "bZxContract",
      "outputs": [
        {
          "internalType": "address",
          "name": "",
          "type": "address"
        }
      ],
      "payable": false,
      "stateMutability": "view",
      "type": "function"
    },
    {
      "constant": true,
      "inputs": [
        {
          "internalType": "uint256",
          "name": "_start",
          "type": "uint256"
        },
        {
          "internalType": "uint256",
          "name": "_count",
          "type": "uint256"
        }
      ],
      "name": "getTokens",
      "outputs": [
        {
          "components": [
            {
              "internalType": "address",
              "name": "token",
              "type": "address"
            },
            {
              "internalType": "address",
              "name": "asset",
              "type": "address"
            }
          ],
          "internalType": "struct TokenRegistry.TokenMetadata[]",
          "name": "metadata",
          "type": "tuple[]"
        }
      ],
      "payable": false,
      "stateMutability": "view",
      "type": "function"
    }
  ],
  "bytecode": "608060405234801561001057600080fd5b50610584806100206000396000f3fe608060405234801561001057600080fd5b50600436106100365760003560e01c8063494cfc6c1461003b578063995363d314610064575b600080fd5b61004e610049366004610388565b610079565b60405161005b919061047f565b60405180910390f35b61006c610263565b60405161005b9190610471565b60405163402946b960e01b8152606090819073d8ee69652e4e4838f2531732a46d1f7f584f0b7f90819063402946b9906100b99088908890600401610497565b60006040518083038186803b1580156100d157600080fd5b505afa1580156100e5573d6000803e3d6000fd5b505050506040513d6000823e601f3d908101601f1916820160405261010d9190810190610353565b9150815160405190808252806020026020018201604052801561014a57816020015b61013761027b565b81526020019060019003908161012f5790505b50925060005b825181101561025a5782818151811061016557fe5b602002602001015184828151811061017957fe5b6020026020010151600001906001600160a01b031690816001600160a01b031681525050816001600160a01b0316638dc48ba58483815181106101b857fe5b60200260200101516040518263ffffffff1660e01b81526004016101dc9190610471565b60206040518083038186803b1580156101f457600080fd5b505afa158015610208573d6000803e3d6000fd5b505050506040513d601f19601f8201168201806040525061022c919081019061032d565b84828151811061023857fe5b6020908102919091018101516001600160a01b03909216910152600101610150565b50505092915050565b73d8ee69652e4e4838f2531732a46d1f7f584f0b7f81565b604080518082019091526000808252602082015290565b805161029d81610521565b92915050565b600082601f8301126102b457600080fd5b81516102c76102c2826104d9565b6104b2565b915081818352602084019350602081019050838560208402820111156102ec57600080fd5b60005b8381101561031857816103028882610292565b84525060209283019291909101906001016102ef565b5050505092915050565b803561029d81610538565b60006020828403121561033f57600080fd5b600061034b8484610292565b949350505050565b60006020828403121561036557600080fd5b815167ffffffffffffffff81111561037c57600080fd5b61034b848285016102a3565b6000806040838503121561039b57600080fd5b60006103a78585610322565b92505060206103b885828601610322565b9150509250929050565b60006103ce838361043e565b505060400190565b6103df8161050d565b82525050565b60006103f082610500565b6103fa8185610504565b9350610405836104fa565b8060005b8381101561043357815161041d88826103c2565b9750610428836104fa565b925050600101610409565b509495945050505050565b8051604083019061044f84826103d6565b50602082015161046260208501826103d6565b50505050565b6103df8161051e565b6020810161029d82846103d6565b6020808252810161049081846103e5565b9392505050565b604081016104a58285610468565b6104906020830184610468565b60405181810167ffffffffffffffff811182821017156104d157600080fd5b604052919050565b600067ffffffffffffffff8211156104f057600080fd5b5060209081020190565b60200190565b5190565b90815260200190565b60006001600160a01b03821661029d565b90565b61052a8161050d565b811461053557600080fd5b50565b61052a8161051e56fea365627a7a723158203260bcfc77e5180e08a775831e585a36b277ffe8841390ee264eb73756e59bfb6c6578706572696d656e74616cf564736f6c63430005110040",
  "bytecodeSha1": "76cd50f5c66e2308357d0f4167f98b6c8a53e4dc",
  "compiler": {
    "evm_version": "istanbul",
    "optimizer": {
      "enabled": true,
      "runs": 200
    },
    "version": "0.5.17+commit.d19bba13"
  },
  "contractName": "TokenRegistry",
  "language": "Solidity",
  "natspec": {
    "methods": {}
  },
  "opcodes": "PUSH1 0x80 PUSH1 0x40 MSTORE CALLVALUE DUP1 ISZERO PUSH2 0x10 JUMPI PUSH1 0x0 DUP1 REVERT JUMPDEST POP PUSH1 0x4 CALLDATASIZE LT PUSH2 0x36 JUMPI PUSH1 0x0 CALLDATALOAD PUSH1 0xE0 SHR DUP1 PUSH4 0x494CFC6C EQ PUSH2 0x3B JUMPI DUP1 PUSH4 0x995363D3 EQ PUSH2 0x64 JUMPI JUMPDEST PUSH1 0x0 DUP1 REVERT JUMPDEST PUSH2 0x4E PUSH2 0x49 CALLDATASIZE PUSH1 0x4 PUSH2 0x388 JUMP JUMPDEST PUSH2 0x79 JUMP JUMPDEST PUSH1 0x40 MLOAD PUSH2 0x5B SWAP2 SWAP1 PUSH2 0x47F JUMP JUMPDEST PUSH1 0x40 MLOAD DUP1 SWAP2 SUB SWAP1 RETURN JUMPDEST PUSH2 0x6C PUSH2 0x263 JUMP JUMPDEST PUSH1 0x40 MLOAD PUSH2 0x5B SWAP2 SWAP1 PUSH2 0x471 JUMP JUMPDEST PUSH1 0x40 MLOAD PUSH4 0x402946B9 PUSH1 0xE0 SHL DUP2 MSTORE PUSH1 0x60 SWAP1 DUP2 SWAP1 PUSH20 0xD8EE69652E4E4838F2531732A46D1F7F584F0B7F SWAP1 DUP2 SWAP1 PUSH4 0x402946B9 SWAP1 PUSH2 0xB9 SWAP1 DUP9 SWAP1 DUP9 SWAP1 PUSH1 0x4 ADD PUSH2 0x497 JUMP JUMPDEST PUSH1 0x0 PUSH1 0x40 MLOAD DUP1 DUP4 SUB DUP2 DUP7 DUP1 EXTCODESIZE ISZERO DUP1 ISZERO PUSH2 0xD1 JUMPI PUSH1 0x0 DUP1 REVERT JUMPDEST POP GAS STATICCALL ISZERO DUP1 ISZERO PUSH2 0xE5 JUMPI RETURNDATASIZE PUSH1 0x0 DUP1 RETURNDATACOPY RETURNDATASIZE PUSH1 0x0 REVERT JUMPDEST POP POP POP POP PUSH1 0x40 MLOAD RETURNDATASIZE PUSH1 0x0 DUP3 RETURNDATACOPY PUSH1 0x1F RETURNDATASIZE SWAP1 DUP2 ADD PUSH1 0x1F NOT AND DUP3 ADD PUSH1 0x40 MSTORE PUSH2 0x10D SWAP2 SWAP1 DUP2 ADD SWAP1 PUSH2 0x353 JUMP JUMPDEST SWAP2 POP DUP2 MLOAD PUSH1 0x40 MLOAD SWAP1 DUP1 DUP3 MSTORE DUP1 PUSH1 0x20 MUL PUSH1 0x20 ADD DUP3 ADD PUSH1 0x40 MSTORE DUP1 ISZERO PUSH2 0x14A JUMPI DUP2 PUSH1 0x20 ADD JUMPDEST PUSH2 0x137 PUSH2 0x27B JUMP JUMPDEST DUP2 MSTORE PUSH1 0x20 ADD SWAP1 PUSH1 0x1 SWAP1 SUB SWAP1 DUP2 PUSH2 0x12F JUMPI SWAP1 POP JUMPDEST POP SWAP3 POP PUSH1 0x0 JUMPDEST DUP3 MLOAD DUP2 LT ISZERO PUSH2 0x25A JUMPI DUP3 DUP2 DUP2 MLOAD DUP2 LT PUSH2 0x165 JUMPI INVALID JUMPDEST PUSH1 0x20 MUL PUSH1 0x20 ADD ADD MLOAD DUP5 DUP3 DUP2 MLOAD DUP2 LT PUSH2 0x179 JUMPI INVALID JUMPDEST PUSH1 0x20 MUL PUSH1 0x20 ADD ADD MLOAD PUSH1 0x0 ADD SWAP1 PUSH1 0x1 PUSH1 0x1 PUSH1 0xA0 SHL SUB AND SWAP1 DUP2 PUSH1 0x1 PUSH1 0x1 PUSH1 0xA0 SHL SUB AND DUP2 MSTORE POP POP DUP2 PUSH1 0x1 PUSH1 0x1 PUSH1 0xA0 SHL SUB AND PUSH4 0x8DC48BA5 DUP5 DUP4 DUP2 MLOAD DUP2 LT PUSH2 0x1B8 JUMPI INVALID JUMPDEST PUSH1 0x20 MUL PUSH1 0x20 ADD ADD MLOAD PUSH1 0x40 MLOAD DUP3 PUSH4 0xFFFFFFFF AND PUSH1 0xE0 SHL DUP2 MSTORE PUSH1 0x4 ADD PUSH2 0x1DC SWAP2 SWAP1 PUSH2 0x471 JUMP JUMPDEST PUSH1 0x20 PUSH1 0x40 MLOAD DUP1 DUP4 SUB DUP2 DUP7 DUP1 EXTCODESIZE ISZERO DUP1 ISZERO PUSH2 0x1F4 JUMPI PUSH1 0x0 DUP1 REVERT JUMPDEST POP GAS STATICCALL ISZERO DUP1 ISZERO PUSH2 0x208 JUMPI RETURNDATASIZE PUSH1 0x0 DUP1 RETURNDATACOPY RETURNDATASIZE PUSH1 0x0 REVERT JUMPDEST POP POP POP POP PUSH1 0x40 MLOAD RETURNDATASIZE PUSH1 0x1F NOT PUSH1 0x1F DUP3 ADD AND DUP3 ADD DUP1 PUSH1 0x40 MSTORE POP PUSH2 0x22C SWAP2 SWAP1 DUP2 ADD SWAP1 PUSH2 0x32D JUMP JUMPDEST DUP5 DUP3 DUP2 MLOAD DUP2 LT PUSH2 0x238 JUMPI INVALID JUMPDEST PUSH1 0x20 SWAP1 DUP2 MUL SWAP2 SWAP1 SWAP2 ADD DUP2 ADD MLOAD PUSH1 0x1 PUSH1 0x1 PUSH1 0xA0 SHL SUB SWAP1 SWAP3 AND SWAP2 ADD MSTORE PUSH1 0x1 ADD PUSH2 0x150 JUMP JUMPDEST POP POP POP SWAP3 SWAP2 POP POP JUMP JUMPDEST PUSH20 0xD8EE69652E4E4838F2531732A46D1F7F584F0B7F DUP2 JUMP JUMPDEST PUSH1 0x40 DUP1 MLOAD DUP1 DUP3 ADD SWAP1 SWAP2 MSTORE PUSH1 0x0 DUP1 DUP3 MSTORE PUSH1 0x20 DUP3 ADD MSTORE SWAP1 JUMP JUMPDEST DUP1 MLOAD PUSH2 0x29D DUP2 PUSH2 0x521 JUMP JUMPDEST SWAP3 SWAP2 POP POP JUMP JUMPDEST PUSH1 0x0 DUP3 PUSH1 0x1F DUP4 ADD SLT PUSH2 0x2B4 JUMPI PUSH1 0x0 DUP1 REVERT JUMPDEST DUP2 MLOAD PUSH2 0x2C7 PUSH2 0x2C2 DUP3 PUSH2 0x4D9 JUMP JUMPDEST PUSH2 0x4B2 JUMP JUMPDEST SWAP2 POP DUP2 DUP2 DUP4 MSTORE PUSH1 0x20 DUP5 ADD SWAP4 POP PUSH1 0x20 DUP2 ADD SWAP1 POP DUP4 DUP6 PUSH1 0x20 DUP5 MUL DUP3 ADD GT ISZERO PUSH2 0x2EC JUMPI PUSH1 0x0 DUP1 REVERT JUMPDEST PUSH1 0x0 JUMPDEST DUP4 DUP2 LT ISZERO PUSH2 0x318 JUMPI DUP2 PUSH2 0x302 DUP9 DUP3 PUSH2 0x292 JUMP JUMPDEST DUP5 MSTORE POP PUSH1 0x20 SWAP3 DUP4 ADD SWAP3 SWAP2 SWAP1 SWAP2 ADD SWAP1 PUSH1 0x1 ADD PUSH2 0x2EF JUMP JUMPDEST POP POP POP POP SWAP3 SWAP2 POP POP JUMP JUMPDEST DUP1 CALLDATALOAD PUSH2 0x29D DUP2 PUSH2 0x538 JUMP JUMPDEST PUSH1 0x0 PUSH1 0x20 DUP3 DUP5 SUB SLT ISZERO PUSH2 0x33F JUMPI PUSH1 0x0 DUP1 REVERT JUMPDEST PUSH1 0x0 PUSH2 0x34B DUP5 DUP5 PUSH2 0x292 JUMP JUMPDEST SWAP5 SWAP4 POP POP POP POP JUMP JUMPDEST PUSH1 0x0 PUSH1 0x20 DUP3 DUP5 SUB SLT ISZERO PUSH2 0x365 JUMPI PUSH1 0x0 DUP1 REVERT JUMPDEST DUP2 MLOAD PUSH8 0xFFFFFFFFFFFFFFFF DUP2 GT ISZERO PUSH2 0x37C JUMPI PUSH1 0x0 DUP1 REVERT JUMPDEST PUSH2 0x34B DUP5 DUP3 DUP6 ADD PUSH2 0x2A3 JUMP JUMPDEST PUSH1 0x0 DUP1 PUSH1 0x40 DUP4 DUP6 SUB SLT ISZERO PUSH2 0x39B JUMPI PUSH1 0x0 DUP1 REVERT JUMPDEST PUSH1 0x0 PUSH2 0x3A7 DUP6 DUP6 PUSH2 0x322 JUMP JUMPDEST SWAP3 POP POP PUSH1 0x20 PUSH2 0x3B8 DUP6 DUP3 DUP7 ADD PUSH2 0x322 JUMP JUMPDEST SWAP2 POP POP SWAP3 POP SWAP3 SWAP1 POP JUMP JUMPDEST PUSH1 0x0 PUSH2 0x3CE DUP4 DUP4 PUSH2 0x43E JUMP JUMPDEST POP POP PUSH1 0x40 ADD SWAP1 JUMP JUMPDEST PUSH2 0x3DF DUP2 PUSH2 0x50D JUMP JUMPDEST DUP3 MSTORE POP POP JUMP JUMPDEST PUSH1 0x0 PUSH2 0x3F0 DUP3 PUSH2 0x500 JUMP JUMPDEST PUSH2 0x3FA DUP2 DUP6 PUSH2 0x504 JUMP JUMPDEST SWAP4 POP PUSH2 0x405 DUP4 PUSH2 0x4FA JUMP JUMPDEST DUP1 PUSH1 0x0 JUMPDEST DUP4 DUP2 LT ISZERO PUSH2 0x433 JUMPI DUP2 MLOAD PUSH2 0x41D DUP9 DUP3 PUSH2 0x3C2 JUMP JUMPDEST SWAP8 POP PUSH2 0x428 DUP4 PUSH2 0x4FA JUMP JUMPDEST SWAP3 POP POP PUSH1 0x1 ADD PUSH2 0x409 JUMP JUMPDEST POP SWAP5 SWAP6 SWAP5 POP POP POP POP POP JUMP JUMPDEST DUP1 MLOAD PUSH1 0x40 DUP4 ADD SWAP1 PUSH2 0x44F DUP5 DUP3 PUSH2 0x3D6 JUMP JUMPDEST POP PUSH1 0x20 DUP3 ADD MLOAD PUSH2 0x462 PUSH1 0x20 DUP6 ADD DUP3 PUSH2 0x3D6 JUMP JUMPDEST POP POP POP POP JUMP JUMPDEST PUSH2 0x3DF DUP2 PUSH2 0x51E JUMP JUMPDEST PUSH1 0x20 DUP2 ADD PUSH2 0x29D DUP3 DUP5 PUSH2 0x3D6 JUMP JUMPDEST PUSH1 0x20 DUP1 DUP3 MSTORE DUP2 ADD PUSH2 0x490 DUP2 DUP5 PUSH2 0x3E5 JUMP JUMPDEST SWAP4 SWAP3 POP POP POP JUMP JUMPDEST PUSH1 0x40 DUP2 ADD PUSH2 0x4A5 DUP3 DUP6 PUSH2 0x468 JUMP JUMPDEST PUSH2 0x490 PUSH1 0x20 DUP4 ADD DUP5 PUSH2 0x468 JUMP JUMPDEST PUSH1 0x40 MLOAD DUP2 DUP2 ADD PUSH8 0xFFFFFFFFFFFFFFFF DUP2 GT DUP3 DUP3 LT OR ISZERO PUSH2 0x4D1 JUMPI PUSH1 0x0 DUP1 REVERT JUMPDEST PUSH1 0x40 MSTORE SWAP2 SWAP1 POP JUMP JUMPDEST PUSH1 0x0 PUSH8 0xFFFFFFFFFFFFFFFF DUP3 GT ISZERO PUSH2 0x4F0 JUMPI PUSH1 0x0 DUP1 REVERT JUMPDEST POP PUSH1 0x20 SWAP1 DUP2 MUL ADD SWAP1 JUMP JUMPDEST PUSH1 0x20 ADD SWAP1 JUMP JUMPDEST MLOAD SWAP1 JUMP JUMPDEST SWAP1 DUP2 MSTORE PUSH1 0x20 ADD SWAP1 JUMP JUMPDEST PUSH1 0x0 PUSH1 0x1 PUSH1 0x1 PUSH1 0xA0 SHL SUB DUP3 AND PUSH2 0x29D JUMP JUMPDEST SWAP1 JUMP JUMPDEST PUSH2 0x52A DUP2 PUSH2 0x50D JUMP JUMPDEST DUP2 EQ PUSH2 0x535 JUMPI PUSH1 0x0 DUP1 REVERT JUMPDEST POP JUMP JUMPDEST PUSH2 0x52A DUP2 PUSH2 0x51E JUMP INVALID LOG3 PUSH6 0x627A7A723158 KECCAK256 ORIGIN PUSH1 0xBC 0xFC PUSH24 0xE5180E08A775831E585A36B277FFE8841390EE264EB73756 0xE5 SWAP12 0xFB PUSH13 0x6578706572696D656E74616CF5 PUSH5 0x736F6C6343 STOP SDIV GT STOP BLOCKHASH ",
  "sha1": "a960476fa0711b326a56c2ac7fcbc1c7c3319d03",
  "source": "/**\n * Copyright 2017-2022, OokiDao. All Rights Reserved.\n * Licensed under the Apache License, Version 2.0.\n */\n\npragma solidity 0.5.17;\npragma experimental ABIEncoderV2;\n\nimport \"../../interfaces/IBZx.sol\";\n\ncontract TokenRegistry {\n\n    address public constant bZxContract = 0xD8Ee69652E4e4838f2531732a46d1f7F584F0b7f; // mainnet\n    //address public constant bZxContract = 0x5cfba2639a3db0D9Cc264Aa27B2E6d134EeA486a; // kovan\n    //address public constant bZxContract = 0xD154eE4982b83a87b0649E5a7DDA1514812aFE1f; // bsc\n    //address public constant bZxContract = 0x059D60a9CEfBc70b9Ea9FFBb9a041581B1dFA6a8; // polygon\n    //address public constant bZxContract = 0x37407F3178ffE07a6cF5C847F8f680FEcf319FAB; // arbitrum\n    //address public constant bZxContract = 0xf2FBaD7E59f0DeeE0ec2E724d2b6827Ea1cCf35f; // evmos\n    //address public constant bZxContract = 0xAcedbFd5Bc1fb0dDC948579d4195616c05E74Fd1; // optimism\n\n    struct TokenMetadata {\n        address token; // iToken\n        address asset; // underlying asset\n    }\n\n    function getTokens(uint256 _start, uint256 _count)\n        external\n        view\n        returns (TokenMetadata[] memory metadata)\n    {\n        address[] memory loanPool;\n        IBZx theProtocol = IBZx(bZxContract);\n        loanPool = theProtocol.getLoanPoolsList(_start, _count);\n\n        metadata = new TokenMetadata[](loanPool.length);\n        for (uint256 i = 0; i < loanPool.length; i++) {\n            metadata[i].token = loanPool[i];\n            metadata[i].asset = theProtocol.loanPoolToUnderlying(loanPool[i]);\n        }\n    }\n}\n",
  "sourcePath": "contracts/adapters/TokenRegistry.sol",
  "type": "contract"
}