{
  "abi": [
    {
      "anonymous": false,
      "inputs": [
        {
          "indexed": false,
          "internalType": "address",
          "name": "previousAdmin",
          "type": "address"
        },
        {
          "indexed": false,
          "internalType": "address",
          "name": "newAdmin",
          "type": "address"
        }
      ],
      "name": "AdminChanged",
      "type": "event"
    },
    {
      "anonymous": false,
      "inputs": [
        {
          "indexed": true,
          "internalType": "address",
          "name": "owner",
          "type": "address"
        },
        {
          "indexed": true,
          "internalType": "address",
          "name": "spender",
          "type": "address"
        },
        {
          "indexed": false,
          "internalType": "uint256",
          "name": "value",
          "type": "uint256"
        }
      ],
      "name": "Approval",
      "type": "event"
    },
    {
      "anonymous": false,
      "inputs": [
        {
          "indexed": true,
          "internalType": "address",
          "name": "beacon",
          "type": "address"
        }
      ],
      "name": "BeaconUpgraded",
      "type": "event"
    },
    {
      "anonymous": false,
      "inputs": [],
      "name": "CancelAdminTransfer",
      "type": "event"
    },
    {
      "anonymous": false,
      "inputs": [],
      "name": "CancelGovTransfer",
      "type": "event"
    },
    {
      "anonymous": false,
      "inputs": [
        {
          "indexed": false,
          "internalType": "address",
          "name": "claimant",
          "type": "address"
        },
        {
          "indexed": false,
          "internalType": "bool",
          "name": "asMyc",
          "type": "bool"
        },
        {
          "indexed": false,
          "internalType": "uint256",
          "name": "rewards",
          "type": "uint256"
        }
      ],
      "name": "Claimed",
      "type": "event"
    },
    {
      "anonymous": false,
      "inputs": [
        {
          "indexed": false,
          "internalType": "address",
          "name": "user",
          "type": "address"
        },
        {
          "indexed": false,
          "internalType": "uint256",
          "name": "ethAmount",
          "type": "uint256"
        },
        {
          "indexed": false,
          "internalType": "uint256",
          "name": "mycAmount",
          "type": "uint256"
        }
      ],
      "name": "Compound",
      "type": "event"
    },
    {
      "anonymous": false,
      "inputs": [
        {
          "indexed": false,
          "internalType": "address",
          "name": "depositor",
          "type": "address"
        },
        {
          "indexed": false,
          "internalType": "uint256",
          "name": "amount",
          "type": "uint256"
        }
      ],
      "name": "Deposit",
      "type": "event"
    },
    {
      "anonymous": false,
      "inputs": [
        {
          "indexed": false,
          "internalType": "uint8",
          "name": "version",
          "type": "uint8"
        }
      ],
      "name": "Initialized",
      "type": "event"
    },
    {
      "anonymous": false,
      "inputs": [
        {
          "indexed": false,
          "internalType": "address",
          "name": "oldAdmin",
          "type": "address"
        },
        {
          "indexed": false,
          "internalType": "address",
          "name": "newAdmin",
          "type": "address"
        }
      ],
      "name": "NewAdmin",
      "type": "event"
    },
    {
      "anonymous": false,
      "inputs": [
        {
          "indexed": false,
          "internalType": "address",
          "name": "oldGov",
          "type": "address"
        },
        {
          "indexed": false,
          "internalType": "address",
          "name": "newGov",
          "type": "address"
        }
      ],
      "name": "NewGov",
      "type": "event"
    },
    {
      "anonymous": false,
      "inputs": [
        {
          "indexed": false,
          "internalType": "bool",
          "name": "paused",
          "type": "bool"
        }
      ],
      "name": "Pause",
      "type": "event"
    },
    {
      "anonymous": false,
      "inputs": [
        {
          "indexed": false,
          "internalType": "address",
          "name": "redeemor",
          "type": "address"
        },
        {
          "indexed": false,
          "internalType": "uint256",
          "name": "amount",
          "type": "uint256"
        }
      ],
      "name": "Redeem",
      "type": "event"
    },
    {
      "anonymous": false,
      "inputs": [
        {
          "indexed": false,
          "internalType": "uint256",
          "name": "oldCycleLength",
          "type": "uint256"
        },
        {
          "indexed": false,
          "internalType": "uint256",
          "name": "newCycleLength",
          "type": "uint256"
        }
      ],
      "name": "SetCycleLength",
      "type": "event"
    },
    {
      "anonymous": false,
      "inputs": [
        {
          "indexed": false,
          "internalType": "uint256",
          "name": "depositCap",
          "type": "uint256"
        },
        {
          "indexed": false,
          "internalType": "uint256",
          "name": "newDepositCap",
          "type": "uint256"
        }
      ],
      "name": "SetDepositCap",
      "type": "event"
    },
    {
      "anonymous": false,
      "inputs": [
        {
          "indexed": false,
          "internalType": "address",
          "name": "oldMycBuyer",
          "type": "address"
        },
        {
          "indexed": false,
          "internalType": "address",
          "name": "newMycBuyer",
          "type": "address"
        }
      ],
      "name": "SetMycBuyer",
      "type": "event"
    },
    {
      "anonymous": false,
      "inputs": [
        {
          "indexed": false,
          "internalType": "bool",
          "name": "_pausedTransferMode",
          "type": "bool"
        }
      ],
      "name": "SetPausedTransferMode",
      "type": "event"
    },
    {
      "anonymous": false,
      "inputs": [
        {
          "indexed": false,
          "internalType": "uint256",
          "name": "oldPreCycleTimelock",
          "type": "uint256"
        },
        {
          "indexed": false,
          "internalType": "uint256",
          "name": "preCycleTimelock",
          "type": "uint256"
        }
      ],
      "name": "SetPreCycleTimelock",
      "type": "event"
    },
    {
      "anonymous": false,
      "inputs": [
        {
          "indexed": false,
          "internalType": "address",
          "name": "user",
          "type": "address"
        },
        {
          "indexed": false,
          "internalType": "bool",
          "name": "autoCompound",
          "type": "bool"
        }
      ],
      "name": "SetUserAutoCompound",
      "type": "event"
    },
    {
      "anonymous": false,
      "inputs": [
        {
          "indexed": false,
          "internalType": "address",
          "name": "_admin",
          "type": "address"
        }
      ],
      "name": "SignalSetAdmin",
      "type": "event"
    },
    {
      "anonymous": false,
      "inputs": [
        {
          "indexed": false,
          "internalType": "address",
          "name": "newGov",
          "type": "address"
        }
      ],
      "name": "SignalSetGov",
      "type": "event"
    },
    {
      "anonymous": false,
      "inputs": [
        {
          "indexed": false,
          "internalType": "uint256",
          "name": "cycleStartTime",
          "type": "uint256"
        }
      ],
      "name": "StartCycle",
      "type": "event"
    },
    {
      "anonymous": false,
      "inputs": [
        {
          "indexed": true,
          "internalType": "address",
          "name": "from",
          "type": "address"
        },
        {
          "indexed": true,
          "internalType": "address",
          "name": "to",
          "type": "address"
        },
        {
          "indexed": false,
          "internalType": "uint256",
          "name": "value",
          "type": "uint256"
        }
      ],
      "name": "Transfer",
      "type": "event"
    },
    {
      "anonymous": false,
      "inputs": [
        {
          "indexed": true,
          "internalType": "address",
          "name": "implementation",
          "type": "address"
        }
      ],
      "name": "Upgraded",
      "type": "event"
    },
    {
      "inputs": [],
      "name": "admin",
      "outputs": [
        {
          "internalType": "address",
          "name": "",
          "type": "address"
        }
      ],
      "stateMutability": "view",
      "type": "function"
    },
    {
      "inputs": [
        {
          "internalType": "address",
          "name": "owner",
          "type": "address"
        },
        {
          "internalType": "address",
          "name": "spender",
          "type": "address"
        }
      ],
      "name": "allowance",
      "outputs": [
        {
          "internalType": "uint256",
          "name": "",
          "type": "uint256"
        }
      ],
      "stateMutability": "view",
      "type": "function"
    },
    {
      "inputs": [],
      "name": "amountDeployed",
      "outputs": [
        {
          "internalType": "uint256",
          "name": "",
          "type": "uint256"
        }
      ],
      "stateMutability": "view",
      "type": "function"
    },
    {
      "inputs": [
        {
          "internalType": "address",
          "name": "spender",
          "type": "address"
        },
        {
          "internalType": "uint256",
          "name": "amount",
          "type": "uint256"
        }
      ],
      "name": "approve",
      "outputs": [
        {
          "internalType": "bool",
          "name": "",
          "type": "bool"
        }
      ],
      "stateMutability": "nonpayable",
      "type": "function"
    },
    {
      "inputs": [],
      "name": "asset",
      "outputs": [
        {
          "internalType": "contract ERC20",
          "name": "",
          "type": "address"
        }
      ],
      "stateMutability": "view",
      "type": "function"
    },
    {
      "inputs": [
        {
          "internalType": "address",
          "name": "account",
          "type": "address"
        }
      ],
      "name": "balanceOf",
      "outputs": [
        {
          "internalType": "uint256",
          "name": "",
          "type": "uint256"
        }
      ],
      "stateMutability": "view",
      "type": "function"
    },
    {
      "inputs": [],
      "name": "cancelAdminTransfer",
      "outputs": [],
      "stateMutability": "nonpayable",
      "type": "function"
    },
    {
      "inputs": [],
      "name": "cancelGovTransfer",
      "outputs": [],
      "stateMutability": "nonpayable",
      "type": "function"
    },
    {
      "inputs": [
        {
          "internalType": "bool",
          "name": "asMyc",
          "type": "bool"
        },
        {
          "internalType": "bytes",
          "name": "data",
          "type": "bytes"
        }
      ],
      "name": "claim",
      "outputs": [],
      "stateMutability": "nonpayable",
      "type": "function"
    },
    {
      "inputs": [],
      "name": "claimAdmin",
      "outputs": [],
      "stateMutability": "nonpayable",
      "type": "function"
    },
    {
      "inputs": [],
      "name": "claimGov",
      "outputs": [],
      "stateMutability": "nonpayable",
      "type": "function"
    },
    {
      "inputs": [
        {
          "internalType": "address",
          "name": "user",
          "type": "address"
        },
        {
          "internalType": "bytes",
          "name": "data",
          "type": "bytes"
        }
      ],
      "name": "compound",
      "outputs": [],
      "stateMutability": "nonpayable",
      "type": "function"
    },
    {
      "inputs": [
        {
          "internalType": "uint256",
          "name": "_shares",
          "type": "uint256"
        },
        {
          "internalType": "uint256",
          "name": "_totalAssets",
          "type": "uint256"
        },
        {
          "internalType": "uint256",
          "name": "_totalSupply",
          "type": "uint256"
        }
      ],
      "name": "convertToAssets",
      "outputs": [
        {
          "internalType": "uint256",
          "name": "",
          "type": "uint256"
        }
      ],
      "stateMutability": "view",
      "type": "function"
    },
    {
      "inputs": [
        {
          "internalType": "uint256",
          "name": "_assets",
          "type": "uint256"
        },
        {
          "internalType": "uint256",
          "name": "_totalAssets",
          "type": "uint256"
        },
        {
          "internalType": "uint256",
          "name": "_totalSupply",
          "type": "uint256"
        }
      ],
      "name": "convertToShares",
      "outputs": [
        {
          "internalType": "uint256",
          "name": "",
          "type": "uint256"
        }
      ],
      "stateMutability": "view",
      "type": "function"
    },
    {
      "inputs": [],
      "name": "cycle",
      "outputs": [
        {
          "internalType": "uint256",
          "name": "",
          "type": "uint256"
        }
      ],
      "stateMutability": "view",
      "type": "function"
    },
    {
      "inputs": [
        {
          "internalType": "uint256",
          "name": "",
          "type": "uint256"
        }
      ],
      "name": "cycleCumulativeEthRewards",
      "outputs": [
        {
          "internalType": "uint256",
          "name": "",
          "type": "uint256"
        }
      ],
      "stateMutability": "view",
      "type": "function"
    },
    {
      "inputs": [],
      "name": "cycleLength",
      "outputs": [
        {
          "internalType": "uint256",
          "name": "",
          "type": "uint256"
        }
      ],
      "stateMutability": "view",
      "type": "function"
    },
    {
      "inputs": [
        {
          "internalType": "uint256",
          "name": "",
          "type": "uint256"
        }
      ],
      "name": "cycleSharesAndAssets",
      "outputs": [
        {
          "internalType": "uint256",
          "name": "_totalSupply",
          "type": "uint256"
        },
        {
          "internalType": "uint256",
          "name": "_totalAssets",
          "type": "uint256"
        }
      ],
      "stateMutability": "view",
      "type": "function"
    },
    {
      "inputs": [],
      "name": "cycleStartTime",
      "outputs": [
        {
          "internalType": "uint256",
          "name": "",
          "type": "uint256"
        }
      ],
      "stateMutability": "view",
      "type": "function"
    },
    {
      "inputs": [],
      "name": "decimals",
      "outputs": [
        {
          "internalType": "uint8",
          "name": "",
          "type": "uint8"
        }
      ],
      "stateMutability": "view",
      "type": "function"
    },
    {
      "inputs": [
        {
          "internalType": "address",
          "name": "spender",
          "type": "address"
        },
        {
          "internalType": "uint256",
          "name": "subtractedValue",
          "type": "uint256"
        }
      ],
      "name": "decreaseAllowance",
      "outputs": [
        {
          "internalType": "bool",
          "name": "",
          "type": "bool"
        }
      ],
      "stateMutability": "nonpayable",
      "type": "function"
    },
    {
      "inputs": [
        {
          "internalType": "uint256",
          "name": "assets",
          "type": "uint256"
        },
        {
          "internalType": "address",
          "name": "receiver",
          "type": "address"
        }
      ],
      "name": "deposit",
      "outputs": [],
      "stateMutability": "nonpayable",
      "type": "function"
    },
    {
      "inputs": [],
      "name": "depositCap",
      "outputs": [
        {
          "internalType": "uint256",
          "name": "",
          "type": "uint256"
        }
      ],
      "stateMutability": "view",
      "type": "function"
    },
    {
      "inputs": [],
      "name": "dust",
      "outputs": [
        {
          "internalType": "uint256",
          "name": "",
          "type": "uint256"
        }
      ],
      "stateMutability": "view",
      "type": "function"
    },
    {
      "inputs": [
        {
          "internalType": "address",
          "name": "user",
          "type": "address"
        }
      ],
      "name": "getClaimableAmount",
      "outputs": [
        {
          "internalType": "uint256",
          "name": "",
          "type": "uint256"
        }
      ],
      "stateMutability": "view",
      "type": "function"
    },
    {
      "inputs": [],
      "name": "gov",
      "outputs": [
        {
          "internalType": "address",
          "name": "",
          "type": "address"
        }
      ],
      "stateMutability": "view",
      "type": "function"
    },
    {
      "inputs": [],
      "name": "inPausedTransferMode",
      "outputs": [
        {
          "internalType": "bool",
          "name": "",
          "type": "bool"
        }
      ],
      "stateMutability": "view",
      "type": "function"
    },
    {
      "inputs": [
        {
          "internalType": "address",
          "name": "spender",
          "type": "address"
        },
        {
          "internalType": "uint256",
          "name": "addedValue",
          "type": "uint256"
        }
      ],
      "name": "increaseAllowance",
      "outputs": [
        {
          "internalType": "bool",
          "name": "",
          "type": "bool"
        }
      ],
      "stateMutability": "nonpayable",
      "type": "function"
    },
    {
      "inputs": [
        {
          "internalType": "address",
          "name": "_myc",
          "type": "address"
        },
        {
          "internalType": "address",
          "name": "_gov",
          "type": "address"
        },
        {
          "internalType": "uint256",
          "name": "_cycleLength",
          "type": "uint256"
        },
        {
          "internalType": "uint256",
          "name": "_firstCycleStart",
          "type": "uint256"
        },
        {
          "internalType": "uint256",
          "name": "_preCycleTimelock",
          "type": "uint256"
        },
        {
          "internalType": "uint256",
          "name": "_depositCap",
          "type": "uint256"
        },
        {
          "internalType": "address",
          "name": "_admin",
          "type": "address"
        }
      ],
      "name": "initialize",
      "outputs": [],
      "stateMutability": "nonpayable",
      "type": "function"
    },
    {
      "inputs": [
        {
          "internalType": "address",
          "name": "",
          "type": "address"
        }
      ],
      "name": "latestPendingDeposit",
      "outputs": [
        {
          "internalType": "uint256",
          "name": "",
          "type": "uint256"
        }
      ],
      "stateMutability": "view",
      "type": "function"
    },
    {
      "inputs": [
        {
          "internalType": "address",
          "name": "",
          "type": "address"
        }
      ],
      "name": "latestPendingRedeem",
      "outputs": [
        {
          "internalType": "uint256",
          "name": "",
          "type": "uint256"
        }
      ],
      "stateMutability": "view",
      "type": "function"
    },
    {
      "inputs": [
        {
          "internalType": "address",
          "name": "",
          "type": "address"
        }
      ],
      "name": "maxDeposit",
      "outputs": [
        {
          "internalType": "uint256",
          "name": "",
          "type": "uint256"
        }
      ],
      "stateMutability": "pure",
      "type": "function"
    },
    {
      "inputs": [
        {
          "internalType": "address",
          "name": "owner",
          "type": "address"
        }
      ],
      "name": "maxRedeem",
      "outputs": [
        {
          "internalType": "uint256",
          "name": "",
          "type": "uint256"
        }
      ],
      "stateMutability": "view",
      "type": "function"
    },
    {
      "inputs": [],
      "name": "mycBuyer",
      "outputs": [
        {
          "internalType": "address",
          "name": "",
          "type": "address"
        }
      ],
      "stateMutability": "view",
      "type": "function"
    },
    {
      "inputs": [],
      "name": "name",
      "outputs": [
        {
          "internalType": "string",
          "name": "",
          "type": "string"
        }
      ],
      "stateMutability": "view",
      "type": "function"
    },
    {
      "inputs": [
        {
          "internalType": "uint256",
          "name": "mycLostLastCycle",
          "type": "uint256"
        },
        {
          "internalType": "uint256",
          "name": "amountToWithdraw",
          "type": "uint256"
        }
      ],
      "name": "newCycle",
      "outputs": [],
      "stateMutability": "payable",
      "type": "function"
    },
    {
      "inputs": [],
      "name": "paused",
      "outputs": [
        {
          "internalType": "bool",
          "name": "",
          "type": "bool"
        }
      ],
      "stateMutability": "view",
      "type": "function"
    },
    {
      "inputs": [],
      "name": "pendingDeposits",
      "outputs": [
        {
          "internalType": "uint256",
          "name": "",
          "type": "uint256"
        }
      ],
      "stateMutability": "view",
      "type": "function"
    },
    {
      "inputs": [],
      "name": "pendingNewAdmin",
      "outputs": [
        {
          "internalType": "address",
          "name": "",
          "type": "address"
        }
      ],
      "stateMutability": "view",
      "type": "function"
    },
    {
      "inputs": [],
      "name": "pendingNewGov",
      "outputs": [
        {
          "internalType": "address",
          "name": "",
          "type": "address"
        }
      ],
      "stateMutability": "view",
      "type": "function"
    },
    {
      "inputs": [],
      "name": "pendingRedeems",
      "outputs": [
        {
          "internalType": "uint256",
          "name": "",
          "type": "uint256"
        }
      ],
      "stateMutability": "view",
      "type": "function"
    },
    {
      "inputs": [],
      "name": "preCycleTimelock",
      "outputs": [
        {
          "internalType": "uint256",
          "name": "",
          "type": "uint256"
        }
      ],
      "stateMutability": "view",
      "type": "function"
    },
    {
      "inputs": [
        {
          "internalType": "uint256",
          "name": "assets",
          "type": "uint256"
        }
      ],
      "name": "previewDeposit",
      "outputs": [
        {
          "internalType": "uint256",
          "name": "",
          "type": "uint256"
        }
      ],
      "stateMutability": "view",
      "type": "function"
    },
    {
      "inputs": [
        {
          "internalType": "uint256",
          "name": "shares",
          "type": "uint256"
        }
      ],
      "name": "previewRedeem",
      "outputs": [
        {
          "internalType": "uint256",
          "name": "",
          "type": "uint256"
        }
      ],
      "stateMutability": "view",
      "type": "function"
    },
    {
      "inputs": [],
      "name": "proxiableUUID",
      "outputs": [
        {
          "internalType": "bytes32",
          "name": "",
          "type": "bytes32"
        }
      ],
      "stateMutability": "view",
      "type": "function"
    },
    {
      "inputs": [
        {
          "internalType": "uint256",
          "name": "shares",
          "type": "uint256"
        },
        {
          "internalType": "address",
          "name": "receiver",
          "type": "address"
        },
        {
          "internalType": "address",
          "name": "owner",
          "type": "address"
        }
      ],
      "name": "redeem",
      "outputs": [],
      "stateMutability": "nonpayable",
      "type": "function"
    },
    {
      "inputs": [
        {
          "internalType": "uint256",
          "name": "amount",
          "type": "uint256"
        }
      ],
      "name": "returnMyc",
      "outputs": [],
      "stateMutability": "nonpayable",
      "type": "function"
    },
    {
      "inputs": [
        {
          "internalType": "uint256",
          "name": "newCycleLength",
          "type": "uint256"
        }
      ],
      "name": "setCycleLength",
      "outputs": [],
      "stateMutability": "nonpayable",
      "type": "function"
    },
    {
      "inputs": [
        {
          "internalType": "uint256",
          "name": "newDepositCap",
          "type": "uint256"
        }
      ],
      "name": "setDepositCap",
      "outputs": [],
      "stateMutability": "nonpayable",
      "type": "function"
    },
    {
      "inputs": [
        {
          "internalType": "bool",
          "name": "_pausedTransferMode",
          "type": "bool"
        }
      ],
      "name": "setInPausedTransferMode",
      "outputs": [],
      "stateMutability": "nonpayable",
      "type": "function"
    },
    {
      "inputs": [
        {
          "internalType": "address",
          "name": "_mycBuyer",
          "type": "address"
        }
      ],
      "name": "setMycBuyer",
      "outputs": [],
      "stateMutability": "nonpayable",
      "type": "function"
    },
    {
      "inputs": [
        {
          "internalType": "bool",
          "name": "_paused",
          "type": "bool"
        }
      ],
      "name": "setPaused",
      "outputs": [],
      "stateMutability": "nonpayable",
      "type": "function"
    },
    {
      "inputs": [
        {
          "internalType": "uint256",
          "name": "newPreCycleTimelock",
          "type": "uint256"
        }
      ],
      "name": "setPreCycleTimelock",
      "outputs": [],
      "stateMutability": "nonpayable",
      "type": "function"
    },
    {
      "inputs": [
        {
          "internalType": "bool",
          "name": "autoCompound",
          "type": "bool"
        }
      ],
      "name": "setUserAutoCompound",
      "outputs": [],
      "stateMutability": "nonpayable",
      "type": "function"
    },
    {
      "inputs": [
        {
          "internalType": "address",
          "name": "_admin",
          "type": "address"
        }
      ],
      "name": "signalSetAdmin",
      "outputs": [],
      "stateMutability": "nonpayable",
      "type": "function"
    },
    {
      "inputs": [
        {
          "internalType": "address",
          "name": "_gov",
          "type": "address"
        }
      ],
      "name": "signalSetGov",
      "outputs": [],
      "stateMutability": "nonpayable",
      "type": "function"
    },
    {
      "inputs": [],
      "name": "symbol",
      "outputs": [
        {
          "internalType": "string",
          "name": "",
          "type": "string"
        }
      ],
      "stateMutability": "view",
      "type": "function"
    },
    {
      "inputs": [],
      "name": "totalAssets",
      "outputs": [
        {
          "internalType": "uint256",
          "name": "",
          "type": "uint256"
        }
      ],
      "stateMutability": "view",
      "type": "function"
    },
    {
      "inputs": [],
      "name": "totalSupply",
      "outputs": [
        {
          "internalType": "uint256",
          "name": "",
          "type": "uint256"
        }
      ],
      "stateMutability": "view",
      "type": "function"
    },
    {
      "inputs": [
        {
          "internalType": "address",
          "name": "to",
          "type": "address"
        },
        {
          "internalType": "uint256",
          "name": "amount",
          "type": "uint256"
        }
      ],
      "name": "transfer",
      "outputs": [
        {
          "internalType": "bool",
          "name": "",
          "type": "bool"
        }
      ],
      "stateMutability": "nonpayable",
      "type": "function"
    },
    {
      "inputs": [
        {
          "internalType": "address",
          "name": "from",
          "type": "address"
        },
        {
          "internalType": "address",
          "name": "to",
          "type": "address"
        },
        {
          "internalType": "uint256",
          "name": "amount",
          "type": "uint256"
        }
      ],
      "name": "transferFrom",
      "outputs": [
        {
          "internalType": "bool",
          "name": "",
          "type": "bool"
        }
      ],
      "stateMutability": "nonpayable",
      "type": "function"
    },
    {
      "inputs": [
        {
          "internalType": "address",
          "name": "user",
          "type": "address"
        }
      ],
      "name": "trueBalanceOf",
      "outputs": [
        {
          "internalType": "uint256",
          "name": "",
          "type": "uint256"
        }
      ],
      "stateMutability": "view",
      "type": "function"
    },
    {
      "inputs": [
        {
          "internalType": "address",
          "name": "user",
          "type": "address"
        }
      ],
      "name": "updateUser",
      "outputs": [],
      "stateMutability": "nonpayable",
      "type": "function"
    },
    {
      "inputs": [
        {
          "internalType": "address",
          "name": "newImplementation",
          "type": "address"
        }
      ],
      "name": "upgradeTo",
      "outputs": [],
      "stateMutability": "nonpayable",
      "type": "function"
    },
    {
      "inputs": [
        {
          "internalType": "address",
          "name": "newImplementation",
          "type": "address"
        },
        {
          "internalType": "bytes",
          "name": "data",
          "type": "bytes"
        }
      ],
      "name": "upgradeToAndCall",
      "outputs": [],
      "stateMutability": "payable",
      "type": "function"
    },
    {
      "inputs": [
        {
          "internalType": "address",
          "name": "",
          "type": "address"
        }
      ],
      "name": "userAutoCompound",
      "outputs": [
        {
          "internalType": "bool",
          "name": "",
          "type": "bool"
        }
      ],
      "stateMutability": "view",
      "type": "function"
    },
    {
      "inputs": [
        {
          "internalType": "address",
          "name": "",
          "type": "address"
        }
      ],
      "name": "userCumulativeEthRewards",
      "outputs": [
        {
          "internalType": "uint256",
          "name": "",
          "type": "uint256"
        }
      ],
      "stateMutability": "view",
      "type": "function"
    },
    {
      "inputs": [
        {
          "internalType": "address",
          "name": "",
          "type": "address"
        }
      ],
      "name": "userEthRewardsClaimed",
      "outputs": [
        {
          "internalType": "uint256",
          "name": "",
          "type": "uint256"
        }
      ],
      "stateMutability": "view",
      "type": "function"
    },
    {
      "inputs": [
        {
          "internalType": "address",
          "name": "",
          "type": "address"
        }
      ],
      "name": "userLastUpdated",
      "outputs": [
        {
          "internalType": "uint256",
          "name": "",
          "type": "uint256"
        }
      ],
      "stateMutability": "view",
      "type": "function"
    },
    {
      "inputs": [
        {
          "internalType": "address",
          "name": "",
          "type": "address"
        }
      ],
      "name": "userPendingDeposits",
      "outputs": [
        {
          "internalType": "uint256",
          "name": "",
          "type": "uint256"
        }
      ],
      "stateMutability": "view",
      "type": "function"
    },
    {
      "inputs": [
        {
          "internalType": "address",
          "name": "",
          "type": "address"
        }
      ],
      "name": "userPendingRedeems",
      "outputs": [
        {
          "internalType": "uint256",
          "name": "",
          "type": "uint256"
        }
      ],
      "stateMutability": "view",
      "type": "function"
    },
    {
      "inputs": [
        {
          "internalType": "uint256",
          "name": "amount",
          "type": "uint256"
        }
      ],
      "name": "withdrawEth",
      "outputs": [],
      "stateMutability": "nonpayable",
      "type": "function"
    },
    {
      "inputs": [
        {
          "internalType": "address",
          "name": "token",
          "type": "address"
        },
        {
          "internalType": "uint256",
          "name": "amount",
          "type": "uint256"
        }
      ],
      "name": "withdrawToken",
      "outputs": [],
      "stateMutability": "nonpayable",
      "type": "function"
    }
  ],
  "bytecode": {
    "object": "0x60a06040523060805260c9805460ff60a81b1916600160a81b179055600160cf5534801561002c57600080fd5b5060805161445161006460003960008181611092015281816110d2015281816112c701528181611307015261139a01526144516000f3fe6080604052600436106104265760003560e01c806377f50f9711610229578063c311d0491161012e578063e12f3a61116100b6578063ef8b30f71161007a578063ef8b30f714610cc6578063f264525c14610ce6578063f851a44014610d13578063fad9aba314610d33578063fdebc89b14610d4957600080fd5b8063e12f3a6114610c23578063e6519f6814610c43578063ea52c74014610c63578063eac471a014610c90578063ed03b33614610ca657600080fd5b8063d0e38453116100fd578063d0e3845314610b73578063d761f7a814610ba0578063d905777e14610bcd578063dbd5edc714610bed578063dd62ed3e14610c0357600080fd5b8063c311d04914610ae6578063c50cb15614610b06578063cc92db1714610b26578063cf2ba8f314610b5357600080fd5b80639788ad71116101b1578063a8e4f4ff11610180578063a8e4f4ff14610a5b578063a9059cbb14610a71578063a925859c14610a91578063b5a7790a14610aa6578063ba08765214610ac657600080fd5b80639788ad71146109e65780639a387e7014610a065780639e281a9814610a1b578063a457c2d714610a3b57600080fd5b80638494b0c2116101f85780638494b0c214610968578063866512031461097b5780639119c0671461099b57806392d334c6146109b157806395d89b41146109d157600080fd5b806377f50f97146108f35780637e17d3951461090857806383a5041c146109285780638442f52f1461094857600080fd5b8063395093511161032f5780635c975abb116102b757806369a477371161028657806369a477371461083c5780636a597c4f1461085d5780636e553f651461087d57806370a082311461089d578063717cf5d6146108d357600080fd5b80635c975abb146107c35780635ddd646c146107e45780636190c9d51461081157806364371ae21461082757600080fd5b806344d5f787116102fe57806344d5f787146107355780634cdad506146107655780634f1ef2861461078557806352d1902d146107985780635c074f44146107ad57600080fd5b806339509351146106b35780633c0befa9146106d35780633d84ceca146106f3578063402d267d1461071357600080fd5b806318160ddd116103b2578063313ce56711610381578063313ce56714610614578063335e536c146106305780633659cfe61461064657806336c4f1661461066657806338d52e0f1461069357600080fd5b806318160ddd1461059f57806323b872dd146105b4578063279eb024146105d45780632f8bc0ef146105f457600080fd5b80631138e15c116103f95780631138e15c146104c6578063118d4d9b1461050f57806312d43a511461054757806316c38b3c1461056757806317460a2e1461058957600080fd5b806301e1d1141461042b57806306fdde0314610454578063095ea7b3146104765780630f0d7ff2146104a6575b600080fd5b34801561043757600080fd5b5061044160db5481565b6040519081526020015b60405180910390f35b34801561046057600080fd5b50610469610d76565b60405161044b9190613d0a565b34801561048257600080fd5b50610496610491366004613d39565b610e08565b604051901515815260200161044b565b3480156104b257600080fd5b506104416104c1366004613d63565b610e22565b3480156104d257600080fd5b506104fa6104e1366004613d7e565b60d6602052600090815260409020805460019091015482565b6040805192835260208301919091520161044b565b34801561051b57600080fd5b5060cd5461052f906001600160a01b031681565b6040516001600160a01b03909116815260200161044b565b34801561055357600080fd5b5060cc5461052f906001600160a01b031681565b34801561057357600080fd5b50610587610582366004613da5565b610e62565b005b34801561059557600080fd5b5061044160dc5481565b3480156105ab57600080fd5b50603554610441565b3480156105c057600080fd5b506104966105cf366004613dc2565b610eed565b3480156105e057600080fd5b5060c95461052f906001600160a01b031681565b34801561060057600080fd5b5061058761060f366004613ea1565b610f69565b34801561062057600080fd5b506040516012815260200161044b565b34801561063c57600080fd5b5061044160d05481565b34801561065257600080fd5b50610587610661366004613d63565b611088565b34801561067257600080fd5b50610441610681366004613d63565b60d36020526000908152604090205481565b34801561069f57600080fd5b5060e25461052f906001600160a01b031681565b3480156106bf57600080fd5b506104966106ce366004613d39565b611167565b3480156106df57600080fd5b506105876106ee366004613d7e565b611189565b3480156106ff57600080fd5b5061058761070e366004613d7e565b6111f4565b34801561071f57600080fd5b5061044161072e366004613d63565b5060001990565b34801561074157600080fd5b50610496610750366004613d63565b60e16020526000908152604090205460ff1681565b34801561077157600080fd5b50610441610780366004613d7e565b6112a2565b610587610793366004613ef1565b6112bd565b3480156107a457600080fd5b5061044161138d565b3480156107b957600080fd5b5061044160dd5481565b3480156107cf57600080fd5b5060c95461049690600160a01b900460ff1681565b3480156107f057600080fd5b506104416107ff366004613d63565b60d56020526000908152604090205481565b34801561081d57600080fd5b5061044160cf5481565b34801561083357600080fd5b50610587611440565b34801561084857600080fd5b5060c95461049690600160a81b900460ff1681565b34801561086957600080fd5b50610587610878366004613d63565b611506565b34801561088957600080fd5b50610587610898366004613f0d565b611599565b3480156108a957600080fd5b506104416108b8366004613d63565b6001600160a01b031660009081526033602052604090205490565b3480156108df57600080fd5b506105876108ee366004613d63565b6115ce565b3480156108ff57600080fd5b50610587611646565b34801561091457600080fd5b50610587610923366004613d7e565b61170c565b34801561093457600080fd5b50610587610943366004613f39565b611768565b34801561095457600080fd5b50610587610963366004613da5565b611a85565b610587610976366004613fa3565b611afc565b34801561098757600080fd5b50610587610996366004613d7e565b611f3a565b3480156109a757600080fd5b5061044160de5481565b3480156109bd57600080fd5b5060cb5461052f906001600160a01b031681565b3480156109dd57600080fd5b50610469611fa5565b3480156109f257600080fd5b50610587610a01366004613fc5565b611fb4565b348015610a1257600080fd5b50610587612102565b348015610a2757600080fd5b50610587610a36366004613d39565b612167565b348015610a4757600080fd5b50610496610a56366004613d39565b6121a5565b348015610a6757600080fd5b5061044160d15481565b348015610a7d57600080fd5b50610496610a8c366004613d39565b61222b565b348015610a9d57600080fd5b5061058761229b565b348015610ab257600080fd5b50610587610ac1366004613d63565b612300565b348015610ad257600080fd5b50610587610ae1366004614048565b612378565b348015610af257600080fd5b50610587610b01366004613d7e565b612595565b348015610b1257600080fd5b50610441610b21366004614084565b6125d6565b348015610b3257600080fd5b50610441610b41366004613d63565b60d26020526000908152604090205481565b348015610b5f57600080fd5b50610587610b6e366004613da5565b6125f8565b348015610b7f57600080fd5b50610441610b8e366004613d63565b60d96020526000908152604090205481565b348015610bac57600080fd5b50610441610bbb366004613d7e565b60da6020526000908152604090205481565b348015610bd957600080fd5b50610441610be8366004613d63565b61264b565b348015610bf957600080fd5b5061044160e05481565b348015610c0f57600080fd5b50610441610c1e3660046140b0565b612656565b348015610c2f57600080fd5b50610441610c3e366004613d63565b612681565b348015610c4f57600080fd5b50610441610c5e366004614084565b6126ca565b348015610c6f57600080fd5b50610441610c7e366004613d63565b60d46020526000908152604090205481565b348015610c9c57600080fd5b5061044160ce5481565b348015610cb257600080fd5b50610587610cc1366004613d63565b6126dd565b348015610cd257600080fd5b50610441610ce1366004613d7e565b6127ee565b348015610cf257600080fd5b50610441610d01366004613d63565b60d76020526000908152604090205481565b348015610d1f57600080fd5b5060ca5461052f906001600160a01b031681565b348015610d3f57600080fd5b5061044160df5481565b348015610d5557600080fd5b50610441610d64366004613d63565b60d86020526000908152604090205481565b606060368054610d85906140da565b80601f0160208091040260200160405190810160405280929190818152602001828054610db1906140da565b8015610dfe5780601f10610dd357610100808354040283529160200191610dfe565b820191906000526020600020905b815481529060010190602001808311610de157829003601f168201915b5050505050905090565b600033610e16818585612809565b60019150505b92915050565b600080610e2e8361292d565b50905080610e51846001600160a01b031660009081526033602052604090205490565b610e5b919061412a565b9392505050565b60cc546001600160a01b03163314610e955760405162461bcd60e51b8152600401610e8c9061413d565b60405180910390fd5b60c98054821515600160a01b0260ff60a01b199091161790556040517f9422424b175dda897495a07b091ef74a3ef715cf6d866fc972954c1c7f45930490610ee290831515815260200190565b60405180910390a150565b60c954600090600160a81b900460ff1615610f415760405162461bcd60e51b8152602060048201526014602482015273506175736564207472616e73666572206d6f646560601b6044820152606401610e8c565b610f4a846126dd565b610f53836126dd565b6000610f60858585612a48565b95945050505050565b60c954600160a01b900460ff1615610f935760405162461bcd60e51b8152600401610e8c9061415e565b610f9c336126dd565b6000821561102b57610fae3383612a61565b5060e25460405163a9059cbb60e01b8152336004820152602481018390529192506001600160a01b03169063a9059cbb906044016020604051808303816000875af1158015611001573d6000803e3d6000fd5b505050506040513d601f19601f82011682018060405250810190611025919061417e565b50611040565b61103433612cb8565b90506110403382612d0c565b6040805133815284151560208201529081018290527fde7382b4a0346dc5680e562522cef9e22d7597329cfcbe4852da453d00a2fbc9906060015b60405180910390a1505050565b6001600160a01b037f00000000000000000000000000000000000000000000000000000000000000001630036110d05760405162461bcd60e51b8152600401610e8c9061419b565b7f00000000000000000000000000000000000000000000000000000000000000006001600160a01b03166111196000805160206143d5833981519152546001600160a01b031690565b6001600160a01b03161461113f5760405162461bcd60e51b8152600401610e8c906141e7565b61114881612e2a565b6040805160008082526020820190925261116491839190612e7a565b50565b600033610e1681858561117a8383612656565b611184919061412a565b612809565b60cc546001600160a01b031633146111b35760405162461bcd60e51b8152600401610e8c9061413d565b60d15460408051918252602082018390527f3dfd1b46ffb6bf2700625ddeb7bdc1d92e6b9c49e3690b82115872bf5cdada5a910160405180910390a160d155565b60cc546001600160a01b0316331461121e5760405162461bcd60e51b8152600401610e8c9061413d565b600081116112615760405162461bcd60e51b815260206004820152601060248201526f06379636c654c656e677468203d3d20360841b6044820152606401610e8c565b60ce5460408051918252602082018390527fe6df33a3a375cdf67b809f4502e9e63952a194da6a74da2137142ab3d7612349910160405180910390a160ce55565b6000806112ae60355490565b9050610e5b8360db54836126ca565b6001600160a01b037f00000000000000000000000000000000000000000000000000000000000000001630036113055760405162461bcd60e51b8152600401610e8c9061419b565b7f00000000000000000000000000000000000000000000000000000000000000006001600160a01b031661134e6000805160206143d5833981519152546001600160a01b031690565b6001600160a01b0316146113745760405162461bcd60e51b8152600401610e8c906141e7565b61137d82612e2a565b61138982826001612e7a565b5050565b6000306001600160a01b037f0000000000000000000000000000000000000000000000000000000000000000161461142d5760405162461bcd60e51b815260206004820152603860248201527f555550535570677261646561626c653a206d757374206e6f742062652063616c60448201527f6c6564207468726f7567682064656c656761746563616c6c00000000000000006064820152608401610e8c565b506000805160206143d583398151915290565b60cd546001600160a01b0316331461149a5760405162461bcd60e51b815260206004820152601b60248201527f6d73672e73656e64657220213d2070656e64696e674e6577476f7600000000006044820152606401610e8c565b60cc54604080516001600160a01b0390921682523360208301527f1f14cfc03e486d23acee577b07bc0b3b23f4888c91fcdba5e0fef5a2549d5523910160405180910390a160cd805460cc80546001600160a01b03199081166001600160a01b03841617909155169055565b60cc546001600160a01b031633146115305760405162461bcd60e51b8152600401610e8c9061413d565b60c954604080516001600160a01b03928316815291831660208301527fde4bcb16a1f56fb46ae88757b36ef03c00f0169eae93e59d4f0cadfdb11dec33910160405180910390a160c980546001600160a01b0319166001600160a01b0392909216919091179055565b60c954600160a01b900460ff16156115c35760405162461bcd60e51b8152600401610e8c9061415e565b611389823383612fe5565b60cc546001600160a01b031633146115f85760405162461bcd60e51b8152600401610e8c9061413d565b60cb80546001600160a01b0319166001600160a01b0383169081179091556040519081527fbccacda50126e9efa231593d2a9d4394d7cda7909ab2e14d2ae878ab2a306b3f90602001610ee2565b60cb546001600160a01b031633146116a05760405162461bcd60e51b815260206004820152601d60248201527f6d73672e73656e64657220213d2070656e64696e674e657741646d696e0000006044820152606401610e8c565b60ca54604080516001600160a01b0390921682523360208301527ff9ffabca9c8276e99321725bcb43fb076a6c66a54b7f21c4e8146d8519b417dc910160405180910390a160cb805460ca80546001600160a01b03199081166001600160a01b03841617909155169055565b60cc546001600160a01b031633146117365760405162461bcd60e51b8152600401610e8c9061413d565b60e25461174e906001600160a01b0316333084613181565b8060dc60008282546117609190614233565b909155505050565b600054610100900460ff16158080156117885750600054600160ff909116105b806117a25750303b1580156117a2575060005460ff166001145b6118055760405162461bcd60e51b815260206004820152602e60248201527f496e697469616c697a61626c653a20636f6e747261637420697320616c72656160448201526d191e481a5b9a5d1a585b1a5e995960921b6064820152608401610e8c565b6000805460ff191660011790558015611828576000805461ff0019166101001790555b61186d604051806040016040528060078152602001666c656e744d594360c81b815250604051806040016040528060048152602001636c4d594360e01b8152506131ec565b60e280546001600160a01b03808b166001600160a01b03199283161790925560cc80548a841690831617905560ce88905560d087905560d186905560e0859055600160cf5560ca8054928516929091169190911790556118d03080600019612809565b60408051600081526001600160a01b03891660208201527f1f14cfc03e486d23acee577b07bc0b3b23f4888c91fcdba5e0fef5a2549d5523910160405180910390a16040805160008152602081018890527fe6df33a3a375cdf67b809f4502e9e63952a194da6a74da2137142ab3d7612349910160405180910390a16040518581527fb49c272d1d7a82990548b1e00479488c9a98e7b38824f0e941622b95a82f82da9060200160405180910390a16040805160008152602081018690527f3dfd1b46ffb6bf2700625ddeb7bdc1d92e6b9c49e3690b82115872bf5cdada5a910160405180910390a16040805160008152602081018590527f956e7aa988106f059c11ed7903de5532fa0581099295db11514cb99180560a66910160405180910390a160408051600081526001600160a01b03841660208201527ff9ffabca9c8276e99321725bcb43fb076a6c66a54b7f21c4e8146d8519b417dc910160405180910390a18015611a7b576000805461ff0019169055604051600181527f7f26b83ff96e1f2b6a682f133852f6798a09c465da95921460cefb38474024989060200160405180910390a15b5050505050505050565b60cc546001600160a01b03163314611aaf5760405162461bcd60e51b8152600401610e8c9061413d565b60c98054821515600160a81b0260ff60a81b199091161790556040517fcbac1b5d30dbfe30fb65f3b052910e0dbdcf9218995b7d50d256f87429a3549b90610ee290831515815260200190565b60cc546001600160a01b03163314611b265760405162461bcd60e51b8152600401610e8c9061413d565b60d15460ce5460d054611b39919061412a565b611b439190614233565b4211611b915760405162461bcd60e51b815260206004820152601860248201527f5374617274696e67206379636c6520746f6f206561726c7900000000000000006044820152606401610e8c565b4260d05560de5480611ba260355490565b611bac919061412a565b600003611c0b5760da6000600160cf54611bc69190614233565b81526020019081526020016000205460da600060cf548152602001908152602001600020819055503460df6000828254611c00919061412a565b90915550611d419050565b6000611c3782611c1a60355490565b611c24919061412a565b60df54611c31903461412a565b9061321d565b905060008160da6000600160cf54611c4f9190614233565b815260200190815260200160002054611c68919061412a565b60cf54600090815260da602052604090208190559050611c9c83611c8b60355490565b611c95919061412a565b8390613232565b341115611cd657611cb083611c8b60355490565b611cba9034614233565b60df6000828254611ccb919061412a565b90915550611d3e9050565b600034611cf785611ce660355490565b611cf0919061412a565b8590613232565b611d019190614233565b90508060df54118015611d145750600081115b15611d36578060df6000828254611d2b9190614233565b90915550611d3c9050565b600060df555b505b50505b8260db6000828254611d539190614233565b92505081905550604051806040016040528082611d6f60355490565b611d79919061412a565b815260db5460209182015260cf54600090815260d6825260408120835181559290910151600190920191909155611daf82613247565b9050611dc630611dc160dd548561325e565b613284565b8060dd541115611dfa578060dd54611dde9190614233565b60db6000828254611def919061412a565b90915550611e289050565b8060dd541015611e285760dd54611e119082614233565b60db6000828254611e229190614233565b90915550505b600060de81905560dd5560e254611e49906001600160a01b03163385613345565b8260dc6000828254611e5b919061412a565b92505081905550600160cf6000828254611e75919061412a565b909155505060e2546040516370a0823160e01b815230600482015282916001600160a01b0316906370a0823190602401602060405180830381865afa158015611ec2573d6000803e3d6000fd5b505050506040513d601f19601f82011682018060405250810190611ee69190614246565b1015611f345760405162461bcd60e51b815260206004820152601f60248201527f4d594320676976656e206973206c657373207468616e207265717569726564006044820152606401610e8c565b50505050565b60cc546001600160a01b03163314611f645760405162461bcd60e51b8152600401610e8c9061413d565b60e05460408051918252602082018390527f956e7aa988106f059c11ed7903de5532fa0581099295db11514cb99180560a66910160405180910390a160e055565b606060378054610d85906140da565b60c954600160a01b900460ff1615611fde5760405162461bcd60e51b8152600401610e8c9061415e565b6001600160a01b0383163314612056576001600160a01b038316600090815260e1602052604090205460ff166120565760405162461bcd60e51b815260206004820152601960248201527f55736572206e6f74206175746f2d636f6d706f756e64696e67000000000000006044820152606401610e8c565b61205f836126dd565b6000806120a28585858080601f016020809104026020016040519081016040528093929190818152602001838380828437600092019190915250612a6192505050565b915091506120b1823087612fe5565b604080516001600160a01b0387168152602081018390529081018390527f0e311a2c6dbfb0153ec3a8a5bdca09070b3e5f60768fdc10a20453f38d1868739060600160405180910390a15050505050565b60cc546001600160a01b0316331461212c5760405162461bcd60e51b8152600401610e8c9061413d565b60cb80546001600160a01b03191690556040517f0609bb6420902a602acfddbf03f7ef4f9c4ddc4380503870c2cd41927b58417f90600090a1565b60cc546001600160a01b031633146121915760405162461bcd60e51b8152600401610e8c9061413d565b6113896001600160a01b0383163383613345565b600033816121b38286612656565b9050838110156122135760405162461bcd60e51b815260206004820152602560248201527f45524332303a2064656372656173656420616c6c6f77616e63652062656c6f77604482015264207a65726f60d81b6064820152608401610e8c565b6122208286868403612809565b506001949350505050565b60c954600090600160a81b900460ff161561227f5760405162461bcd60e51b8152602060048201526014602482015273506175736564207472616e73666572206d6f646560601b6044820152606401610e8c565b612288336126dd565b612291836126dd565b610e5b8383613375565b60cc546001600160a01b031633146122c55760405162461bcd60e51b8152600401610e8c9061413d565b60cd80546001600160a01b03191690556040517f6338686c9437b10e096f7dc6ea97668e9d97a256c71ef4899f7f3b566c88565a90600090a1565b60cc546001600160a01b0316331461232a5760405162461bcd60e51b8152600401610e8c9061413d565b60cd80546001600160a01b0319166001600160a01b0383169081179091556040519081527f4a2e50ac65bdaebcb38b37de55d990566b49a3020db9af0526b63a42f311820a90602001610ee2565b60c954600160a01b900460ff16156123a25760405162461bcd60e51b8152600401610e8c9061415e565b6001600160a01b03821633146123f35760405162461bcd60e51b81526020600482015260166024820152753932b1b2b4bb32b910109e9036b9b39739b2b73232b960511b6044820152606401610e8c565b6001600160a01b03811633146124415760405162461bcd60e51b815260206004820152601360248201527237bbb732b910109e9036b9b39739b2b73232b960691b6044820152606401610e8c565b61244a336126dd565b3360009081526033602052604090205483111561249e5760405162461bcd60e51b81526020600482015260126024820152714e6f7420656e6f7567682062616c616e636560701b6044820152606401610e8c565b60d15460ce5460d0546124b1919061412a565b6124bb9190614233565b4211156125035760405162461bcd60e51b815260206004820152601660248201527514995919595b481c995c5d595cdd1cc81b1bd8dad95960521b6044820152606401610e8c565b60cf5433600090815260d5602052604081209190915560de805485929061252b90849061412a565b909155505033600090815260d360205260408120805485929061254f90849061412a565b9091555061255f90503384613382565b60408051338152602081018590527f222838db2794d11532d940e8dec38ae307ed0b63cd97c233322e221f998767a6910161107b565b60cc546001600160a01b031633146125bf5760405162461bcd60e51b8152600401610e8c9061413d565b478111156125cc57600080fd5b6111643382612d0c565b600081156125ee576125e98483856134b6565b6125f0565b835b949350505050565b33600081815260e16020908152604091829020805460ff19168515159081179091558251938452908301527f335abaad2e9c560da40e7c187aedbff0b204c1505ce03944900ccc1e0c4cb58e9101610ee2565b6000610e1c82610e22565b6001600160a01b03918216600090815260346020908152604080832093909416825291909152205490565b60008061268d836134d5565b6001600160a01b038416600090815260d8602090815260408083205460d790925282205492935090916126c0908461412a565b6125f09190614233565b600081156125ee576125e98484846134b6565b60c954600160a01b900460ff16156127075760405162461bcd60e51b8152600401610e8c9061415e565b6000612712826134d5565b6001600160a01b038316600090815260d7602052604081208054929350839290919061273f90849061412a565b9091555060009050806127518461292d565b9092509050811561278d576001600160a01b038416600090815260d46020908152604080832083905560d290915281205561278d3085846135e9565b80156127c9576001600160a01b03808516600090815260d56020908152604080832083905560d390915281205560e2546127c991168583613345565b505060cf546001600160a01b03909216600090815260d9602052604090209190915550565b6000806127fa60355490565b9050610e5b8360db54836125d6565b6001600160a01b03831661286b5760405162461bcd60e51b8152602060048201526024808201527f45524332303a20617070726f76652066726f6d20746865207a65726f206164646044820152637265737360e01b6064820152608401610e8c565b6001600160a01b0382166128cc5760405162461bcd60e51b815260206004820152602260248201527f45524332303a20617070726f766520746f20746865207a65726f206164647265604482015261737360f01b6064820152608401610e8c565b6001600160a01b0383811660008181526034602090815260408083209487168084529482529182902085905590518481527f8c5be1e5ebec7d5bd14f71427d1e84f3dd0314c0f7b2291e5b200ac8c7c3b925910160405180910390a3505050565b6001600160a01b038116600090815260d4602052604081205460cf54829190829081908310801561295e5750600083115b156129b857600083815260d66020908152604080832081518083018352815481526001909101548184019081526001600160a01b038b16855260d290935290832054915181519193926129b3929091906125d6565b935050505b6001600160a01b038616600090815260d5602052604090205460cf54811080156129e25750600081115b15612a3c57600081815260d66020908152604080832081518083018352815481526001909101548184019081526001600160a01b038c16855260d39093529083205491518151919392612a37929091906126ca565b935050505b50909590945092505050565b600033612a56858285613794565b6122208585856135e9565b6000806000612a6f85612cb8565b905060008111612ab65760405162461bcd60e51b8152602060048201526012602482015271139bc81c995dd85c991cc818db185a5b595960721b6044820152606401610e8c565b60e2546040516370a0823160e01b81523060048201526000916001600160a01b0316906370a0823190602401602060405180830381865afa158015612aff573d6000803e3d6000fd5b505050506040513d601f19601f82011682018060405250810190612b239190614246565b60c954604051630f2ccb1760e01b81529192506000916001600160a01b0390911690630f2ccb17908590612b5b908a90600401613d0a565b60206040518083038185885af1158015612b79573d6000803e3d6000fd5b50505050506040513d601f19601f82011682018060405250810190612b9e9190614246565b60e2546040516370a0823160e01b81523060048201529192506000916001600160a01b03909116906370a0823190602401602060405180830381865afa158015612bec573d6000803e3d6000fd5b505050506040513d601f19601f82011682018060405250810190612c109190614246565b905060008211612c535760405162461bcd60e51b815260206004820152600e60248201526d06d7963416d6f756e74203d3d20360941b6044820152606401610e8c565b81612c5e8483614233565b14612cab5760405162461bcd60e51b815260206004820152601b60248201527f6275794d7963206f757470757420646f65736e2774206d6174636800000000006044820152606401610e8c565b5096919550909350505050565b6001600160a01b038116600090815260d8602090815260408083205460d790925282205482612ce78383614233565b6001600160a01b03909516600090815260d86020526040902091909155509192915050565b80471015612d5c5760405162461bcd60e51b815260206004820152601d60248201527f416464726573733a20696e73756666696369656e742062616c616e63650000006044820152606401610e8c565b6000826001600160a01b03168260405160006040518083038185875af1925050503d8060008114612da9576040519150601f19603f3d011682016040523d82523d6000602084013e612dae565b606091505b5050905080612e255760405162461bcd60e51b815260206004820152603a60248201527f416464726573733a20756e61626c6520746f2073656e642076616c75652c207260448201527f6563697069656e74206d617920686176652072657665727465640000000000006064820152608401610e8c565b505050565b60ca546001600160a01b031633146111645760405162461bcd60e51b815260206004820152601360248201527236b9b39739b2b73232b910109e9030b236b4b760691b6044820152606401610e8c565b7f4910fdfa16fed3260ed0e7147f7cc6da11a60208b5b9406d12a635614ffd91435460ff1615612ead57612e2583613808565b826001600160a01b03166352d1902d6040518163ffffffff1660e01b8152600401602060405180830381865afa925050508015612f07575060408051601f3d908101601f19168201909252612f0491810190614246565b60015b612f6a5760405162461bcd60e51b815260206004820152602e60248201527f45524331393637557067726164653a206e657720696d706c656d656e7461746960448201526d6f6e206973206e6f74205555505360901b6064820152608401610e8c565b6000805160206143d58339815191528114612fd95760405162461bcd60e51b815260206004820152602960248201527f45524331393637557067726164653a20756e737570706f727465642070726f786044820152681a58589b195555525160ba1b6064820152608401610e8c565b50612e258383836138a4565b600083116130235760405162461bcd60e51b815260206004820152600b60248201526a0617373657473203d3d20360ac1b6044820152606401610e8c565b60d15460ce5460d054613036919061412a565b6130409190614233565b421061308e5760405162461bcd60e51b815260206004820152601760248201527f4465706f736974207265717565737473206c6f636b65640000000000000000006044820152606401610e8c565b60e0548360dd5460db546130a2919061412a565b6130ac919061412a565b11156130f15760405162461bcd60e51b815260206004820152601460248201527311195c1bdcda5d0818d85c08195e18d95959195960621b6044820152606401610e8c565b6130fa816126dd565b60cf546001600160a01b038216600090815260d4602052604081209190915560dd805485929061312b90849061412a565b90915550506001600160a01b038116600090815260d260205260408120805485929061315890849061412a565b90915550506001600160a01b0382163014612e255760e254612e25906001600160a01b03168330865b6040516001600160a01b0380851660248301528316604482015260648101829052611f349085906323b872dd60e01b906084015b60408051601f198184030181529190526020810180516001600160e01b03166001600160e01b0319909316929092179091526138c9565b600054610100900460ff166132135760405162461bcd60e51b8152600401610e8c9061425f565b611389828261399b565b6000610e5b83670de0b6b3a7640000846134b6565b6000610e5b8383670de0b6b3a76400006134b6565b6000808261325460355490565b6112ae919061412a565b6000808261326b60355490565b613275919061412a565b90506125f08460db54836125d6565b6001600160a01b0382166132da5760405162461bcd60e51b815260206004820152601f60248201527f45524332303a206d696e7420746f20746865207a65726f2061646472657373006044820152606401610e8c565b80603560008282546132ec919061412a565b90915550506001600160a01b0382166000818152603360209081526040808320805486019055518481527fddf252ad1be2c89b69c2b068fc378daa952ba7f163c4a11628f55a4df523b3ef910160405180910390a35050565b6040516001600160a01b038316602482015260448101829052612e2590849063a9059cbb60e01b906064016131b5565b6000806125f084846139db565b6001600160a01b0382166133e25760405162461bcd60e51b815260206004820152602160248201527f45524332303a206275726e2066726f6d20746865207a65726f206164647265736044820152607360f81b6064820152608401610e8c565b6001600160a01b038216600090815260336020526040902054818110156134565760405162461bcd60e51b815260206004820152602260248201527f45524332303a206275726e20616d6f756e7420657863656564732062616c616e604482015261636560f01b6064820152608401610e8c565b6001600160a01b03831660008181526033602090815260408083208686039055603580548790039055518581529192917fddf252ad1be2c89b69c2b068fc378daa952ba7f163c4a11628f55a4df523b3ef910160405180910390a3505050565b8282028115158415858304851417166134ce57600080fd5b0492915050565b6001600160a01b038116600090815260d9602052604081205460cf548115806134fd57508082145b1561350c575060009392505050565b6001600160a01b038416600090815260d36020908152604080832054603390925282205461357f9161353d9161412a565b60da600061354c600188614233565b81526020019081526020016000205460da6000878152602001908152602001600020546135799190614233565b90613232565b613589908261412a565b9050613596600183614233565b8310156125f0576135df6135a986610e22565b600085815260da60208190526040822054916135c6600188614233565b8152602001908152602001600020546135799190614233565b610f60908261412a565b6001600160a01b03831661364d5760405162461bcd60e51b815260206004820152602560248201527f45524332303a207472616e736665722066726f6d20746865207a65726f206164604482015264647265737360d81b6064820152608401610e8c565b6001600160a01b0382166136af5760405162461bcd60e51b815260206004820152602360248201527f45524332303a207472616e7366657220746f20746865207a65726f206164647260448201526265737360e81b6064820152608401610e8c565b6001600160a01b038316600090815260336020526040902054818110156137275760405162461bcd60e51b815260206004820152602660248201527f45524332303a207472616e7366657220616d6f756e7420657863656564732062604482015265616c616e636560d01b6064820152608401610e8c565b6001600160a01b0380851660008181526033602052604080822086860390559286168082529083902080548601905591517fddf252ad1be2c89b69c2b068fc378daa952ba7f163c4a11628f55a4df523b3ef906137879086815260200190565b60405180910390a3611f34565b60006137a08484612656565b90506000198114611f3457818110156137fb5760405162461bcd60e51b815260206004820152601d60248201527f45524332303a20696e73756666696369656e7420616c6c6f77616e63650000006044820152606401610e8c565b611f348484848403612809565b6001600160a01b0381163b6138755760405162461bcd60e51b815260206004820152602d60248201527f455243313936373a206e657720696d706c656d656e746174696f6e206973206e60448201526c1bdd08184818dbdb9d1c9858dd609a1b6064820152608401610e8c565b6000805160206143d583398151915280546001600160a01b0319166001600160a01b0392909216919091179055565b6138ad836139e9565b6000825111806138ba5750805b15612e2557611f348383613a29565b600061391e826040518060400160405280602081526020017f5361666545524332303a206c6f772d6c6576656c2063616c6c206661696c6564815250856001600160a01b0316613b149092919063ffffffff16565b805190915015612e25578080602001905181019061393c919061417e565b612e255760405162461bcd60e51b815260206004820152602a60248201527f5361666545524332303a204552433230206f7065726174696f6e20646964206e6044820152691bdd081cdd58d8d9595960b21b6064820152608401610e8c565b600054610100900460ff166139c25760405162461bcd60e51b8152600401610e8c9061425f565b60366139ce83826142f8565b506037612e2582826142f8565b600033610e168185856135e9565b6139f281613808565b6040516001600160a01b038216907fbc7cd75a20ee27fd9adebab32041f755214dbc6bffa90cc0225b39da2e5c2d3b90600090a250565b60606001600160a01b0383163b613a915760405162461bcd60e51b815260206004820152602660248201527f416464726573733a2064656c65676174652063616c6c20746f206e6f6e2d636f6044820152651b9d1c9858dd60d21b6064820152608401610e8c565b600080846001600160a01b031684604051613aac91906143b8565b600060405180830381855af49150503d8060008114613ae7576040519150601f19603f3d011682016040523d82523d6000602084013e613aec565b606091505b5091509150610f6082826040518060600160405280602781526020016143f560279139613b23565b60606125f08484600085613b3c565b60608315613b32575081610e5b565b610e5b8383613c17565b606082471015613b9d5760405162461bcd60e51b815260206004820152602660248201527f416464726573733a20696e73756666696369656e742062616c616e636520666f6044820152651c8818d85b1b60d21b6064820152608401610e8c565b600080866001600160a01b03168587604051613bb991906143b8565b60006040518083038185875af1925050503d8060008114613bf6576040519150601f19603f3d011682016040523d82523d6000602084013e613bfb565b606091505b5091509150613c0c87838387613c41565b979650505050505050565b815115613c275781518083602001fd5b8060405162461bcd60e51b8152600401610e8c9190613d0a565b60608315613cb0578251600003613ca9576001600160a01b0385163b613ca95760405162461bcd60e51b815260206004820152601d60248201527f416464726573733a2063616c6c20746f206e6f6e2d636f6e74726163740000006044820152606401610e8c565b50816125f0565b6125f08383613c17565b60005b83811015613cd5578181015183820152602001613cbd565b50506000910152565b60008151808452613cf6816020860160208601613cba565b601f01601f19169290920160200192915050565b602081526000610e5b6020830184613cde565b80356001600160a01b0381168114613d3457600080fd5b919050565b60008060408385031215613d4c57600080fd5b613d5583613d1d565b946020939093013593505050565b600060208284031215613d7557600080fd5b610e5b82613d1d565b600060208284031215613d9057600080fd5b5035919050565b801515811461116457600080fd5b600060208284031215613db757600080fd5b8135610e5b81613d97565b600080600060608486031215613dd757600080fd5b613de084613d1d565b9250613dee60208501613d1d565b9150604084013590509250925092565b634e487b7160e01b600052604160045260246000fd5b600082601f830112613e2557600080fd5b813567ffffffffffffffff80821115613e4057613e40613dfe565b604051601f8301601f19908116603f01168101908282118183101715613e6857613e68613dfe565b81604052838152866020858801011115613e8157600080fd5b836020870160208301376000602085830101528094505050505092915050565b60008060408385031215613eb457600080fd5b8235613ebf81613d97565b9150602083013567ffffffffffffffff811115613edb57600080fd5b613ee785828601613e14565b9150509250929050565b60008060408385031215613f0457600080fd5b613ebf83613d1d565b60008060408385031215613f2057600080fd5b82359150613f3060208401613d1d565b90509250929050565b600080600080600080600060e0888a031215613f5457600080fd5b613f5d88613d1d565b9650613f6b60208901613d1d565b955060408801359450606088013593506080880135925060a08801359150613f9560c08901613d1d565b905092959891949750929550565b60008060408385031215613fb657600080fd5b50508035926020909101359150565b600080600060408486031215613fda57600080fd5b613fe384613d1d565b9250602084013567ffffffffffffffff8082111561400057600080fd5b818601915086601f83011261401457600080fd5b81358181111561402357600080fd5b87602082850101111561403557600080fd5b6020830194508093505050509250925092565b60008060006060848603121561405d57600080fd5b8335925061406d60208501613d1d565b915061407b60408501613d1d565b90509250925092565b60008060006060848603121561409957600080fd5b505081359360208301359350604090920135919050565b600080604083850312156140c357600080fd5b6140cc83613d1d565b9150613f3060208401613d1d565b600181811c908216806140ee57607f821691505b60208210810361410e57634e487b7160e01b600052602260045260246000fd5b50919050565b634e487b7160e01b600052601160045260246000fd5b80820180821115610e1c57610e1c614114565b60208082526007908201526637b7363ca3b7bb60c91b604082015260600190565b6020808252600690820152651c185d5cd95960d21b604082015260600190565b60006020828403121561419057600080fd5b8151610e5b81613d97565b6020808252602c908201527f46756e6374696f6e206d7573742062652063616c6c6564207468726f7567682060408201526b19195b1959d85d1958d85b1b60a21b606082015260800190565b6020808252602c908201527f46756e6374696f6e206d7573742062652063616c6c6564207468726f7567682060408201526b6163746976652070726f787960a01b606082015260800190565b81810381811115610e1c57610e1c614114565b60006020828403121561425857600080fd5b5051919050565b6020808252602b908201527f496e697469616c697a61626c653a20636f6e7472616374206973206e6f74206960408201526a6e697469616c697a696e6760a81b606082015260800190565b601f821115612e2557600081815260208120601f850160051c810160208610156142d15750805b601f850160051c820191505b818110156142f0578281556001016142dd565b505050505050565b815167ffffffffffffffff81111561431257614312613dfe565b6143268161432084546140da565b846142aa565b602080601f83116001811461435b57600084156143435750858301515b600019600386901b1c1916600185901b1785556142f0565b600085815260208120601f198616915b8281101561438a5788860151825594840194600190910190840161436b565b50858210156143a85787850151600019600388901b60f8161c191681555b5050505050600190811b01905550565b600082516143ca818460208701613cba565b919091019291505056fe360894a13ba1a3210667c828492db98dca3e2076cc3735a920a3ca505d382bbc416464726573733a206c6f772d6c6576656c2064656c65676174652063616c6c206661696c6564a26469706673582212200cb1fa8a183b3900406bb8fe886e25da820eb253e0b0c3ba26362d583b71a66c64736f6c63430008110033",
    "linkReferences": {}
  },
  "methodIdentifiers": {
    "admin()": "f851a440",
    "allowance(address,address)": "dd62ed3e",
    "amountDeployed()": "17460a2e",
    "approve(address,uint256)": "095ea7b3",
    "asset()": "38d52e0f",
    "balanceOf(address)": "70a08231",
    "cancelAdminTransfer()": "9a387e70",
    "cancelGovTransfer()": "a925859c",
    "claim(bool,bytes)": "2f8bc0ef",
    "claimAdmin()": "77f50f97",
    "claimGov()": "64371ae2",
    "compound(address,bytes)": "9788ad71",
    "convertToAssets(uint256,uint256,uint256)": "e6519f68",
    "convertToShares(uint256,uint256,uint256)": "c50cb156",
    "cycle()": "6190c9d5",
    "cycleCumulativeEthRewards(uint256)": "d761f7a8",
    "cycleLength()": "eac471a0",
    "cycleSharesAndAssets(uint256)": "1138e15c",
    "cycleStartTime()": "335e536c",
    "decimals()": "313ce567",
    "decreaseAllowance(address,uint256)": "a457c2d7",
    "deposit(uint256,address)": "6e553f65",
    "depositCap()": "dbd5edc7",
    "dust()": "fad9aba3",
    "getClaimableAmount(address)": "e12f3a61",
    "gov()": "12d43a51",
    "inPausedTransferMode()": "69a47737",
    "increaseAllowance(address,uint256)": "39509351",
    "initialize(address,address,uint256,uint256,uint256,uint256,address)": "83a5041c",
    "latestPendingDeposit(address)": "ea52c740",
    "latestPendingRedeem(address)": "5ddd646c",
    "maxDeposit(address)": "402d267d",
    "maxRedeem(address)": "d905777e",
    "mycBuyer()": "279eb024",
    "name()": "06fdde03",
    "newCycle(uint256,uint256)": "8494b0c2",
    "paused()": "5c975abb",
    "pendingDeposits()": "5c074f44",
    "pendingNewAdmin()": "92d334c6",
    "pendingNewGov()": "118d4d9b",
    "pendingRedeems()": "9119c067",
    "preCycleTimelock()": "a8e4f4ff",
    "previewDeposit(uint256)": "ef8b30f7",
    "previewRedeem(uint256)": "4cdad506",
    "proxiableUUID()": "52d1902d",
    "redeem(uint256,address,address)": "ba087652",
    "returnMyc(uint256)": "7e17d395",
    "setCycleLength(uint256)": "3d84ceca",
    "setDepositCap(uint256)": "86651203",
    "setInPausedTransferMode(bool)": "8442f52f",
    "setMycBuyer(address)": "6a597c4f",
    "setPaused(bool)": "16c38b3c",
    "setPreCycleTimelock(uint256)": "3c0befa9",
    "setUserAutoCompound(bool)": "cf2ba8f3",
    "signalSetAdmin(address)": "717cf5d6",
    "signalSetGov(address)": "b5a7790a",
    "symbol()": "95d89b41",
    "totalAssets()": "01e1d114",
    "totalSupply()": "18160ddd",
    "transfer(address,uint256)": "a9059cbb",
    "transferFrom(address,address,uint256)": "23b872dd",
    "trueBalanceOf(address)": "0f0d7ff2",
    "updateUser(address)": "ed03b336",
    "upgradeTo(address)": "3659cfe6",
    "upgradeToAndCall(address,bytes)": "4f1ef286",
    "userAutoCompound(address)": "44d5f787",
    "userCumulativeEthRewards(address)": "f264525c",
    "userEthRewardsClaimed(address)": "fdebc89b",
    "userLastUpdated(address)": "d0e38453",
    "userPendingDeposits(address)": "cc92db17",
    "userPendingRedeems(address)": "36c4f166",
    "withdrawEth(uint256)": "c311d049",
    "withdrawToken(address,uint256)": "9e281a98"
  },
  "id": 36
}